{
  "_format": "hh-sol-artifact-1",
  "contractName": "OTCTrade",
  "sourceName": "contracts/core/OTCTrade.sol",
  "abi": [
    {
      "inputs": [
        {
          "internalType": "uint256",
          "name": "_tradingFeePercent",
          "type": "uint256"
        }
      ],
      "stateMutability": "nonpayable",
      "type": "constructor"
    },
    {
      "inputs": [],
      "name": "FailedCall",
      "type": "error"
    },
    {
      "inputs": [],
      "name": "FeeTooHigh",
      "type": "error"
    },
    {
      "inputs": [
        {
          "internalType": "uint256",
          "name": "balance",
          "type": "uint256"
        },
        {
          "internalType": "uint256",
          "name": "needed",
          "type": "uint256"
        }
      ],
      "name": "InsufficientBalance",
      "type": "error"
    },
    {
      "inputs": [],
      "name": "InsufficientDeposit",
      "type": "error"
    },
    {
      "inputs": [],
      "name": "InvalidAmount",
      "type": "error"
    },
    {
      "inputs": [],
      "name": "NoExtraToWithdraw",
      "type": "error"
    },
    {
      "inputs": [],
      "name": "NotOrderMaker",
      "type": "error"
    },
    {
      "inputs": [],
      "name": "OrderNotActive",
      "type": "error"
    },
    {
      "inputs": [
        {
          "internalType": "address",
          "name": "owner",
          "type": "address"
        }
      ],
      "name": "OwnableInvalidOwner",
      "type": "error"
    },
    {
      "inputs": [
        {
          "internalType": "address",
          "name": "account",
          "type": "address"
        }
      ],
      "name": "OwnableUnauthorizedAccount",
      "type": "error"
    },
    {
      "inputs": [],
      "name": "ReentrancyGuardReentrantCall",
      "type": "error"
    },
    {
      "inputs": [
        {
          "internalType": "address",
          "name": "token",
          "type": "address"
        }
      ],
      "name": "SafeERC20FailedOperation",
      "type": "error"
    },
    {
      "inputs": [],
      "name": "TokenNotWhitelisted",
      "type": "error"
    },
    {
      "inputs": [],
      "name": "TokensCannotBeTheSame",
      "type": "error"
    },
    {
      "anonymous": false,
      "inputs": [
        {
          "indexed": true,
          "internalType": "address",
          "name": "user",
          "type": "address"
        },
        {
          "indexed": true,
          "internalType": "address",
          "name": "token",
          "type": "address"
        },
        {
          "indexed": false,
          "internalType": "uint256",
          "name": "amount",
          "type": "uint256"
        }
      ],
      "name": "ExtraWithdrawn",
      "type": "event"
    },
    {
      "anonymous": false,
      "inputs": [
        {
          "indexed": true,
          "internalType": "uint256",
          "name": "orderId",
          "type": "uint256"
        }
      ],
      "name": "OrderCancelled",
      "type": "event"
    },
    {
      "anonymous": false,
      "inputs": [
        {
          "indexed": true,
          "internalType": "uint256",
          "name": "orderId",
          "type": "uint256"
        },
        {
          "indexed": true,
          "internalType": "address",
          "name": "maker",
          "type": "address"
        },
        {
          "indexed": false,
          "internalType": "address",
          "name": "tokenToSell",
          "type": "address"
        },
        {
          "indexed": false,
          "internalType": "uint256",
          "name": "amountToSell",
          "type": "uint256"
        },
        {
          "indexed": false,
          "internalType": "address",
          "name": "tokenToBuy",
          "type": "address"
        },
        {
          "indexed": false,
          "internalType": "uint256",
          "name": "amountToBuy",
          "type": "uint256"
        }
      ],
      "name": "OrderCreated",
      "type": "event"
    },
    {
      "anonymous": false,
      "inputs": [
        {
          "indexed": true,
          "internalType": "uint256",
          "name": "orderId",
          "type": "uint256"
        },
        {
          "indexed": true,
          "internalType": "address",
          "name": "taker",
          "type": "address"
        }
      ],
      "name": "OrderFilled",
      "type": "event"
    },
    {
      "anonymous": false,
      "inputs": [
        {
          "indexed": true,
          "internalType": "address",
          "name": "previousOwner",
          "type": "address"
        },
        {
          "indexed": true,
          "internalType": "address",
          "name": "newOwner",
          "type": "address"
        }
      ],
      "name": "OwnershipTransferred",
      "type": "event"
    },
    {
      "anonymous": false,
      "inputs": [
        {
          "indexed": true,
          "internalType": "address",
          "name": "token",
          "type": "address"
        },
        {
          "indexed": false,
          "internalType": "bool",
          "name": "status",
          "type": "bool"
        }
      ],
      "name": "TokenWhitelisted",
      "type": "event"
    },
    {
      "anonymous": false,
      "inputs": [
        {
          "indexed": false,
          "internalType": "uint256",
          "name": "newFeePercent",
          "type": "uint256"
        }
      ],
      "name": "TradingFeeUpdated",
      "type": "event"
    },
    {
      "inputs": [
        {
          "internalType": "uint256",
          "name": "_orderId",
          "type": "uint256"
        }
      ],
      "name": "cancelOrder",
      "outputs": [],
      "stateMutability": "nonpayable",
      "type": "function"
    },
    {
      "inputs": [
        {
          "internalType": "contract IERC20",
          "name": "_tokenToSell",
          "type": "address"
        },
        {
          "internalType": "uint256",
          "name": "_amountToSell",
          "type": "uint256"
        },
        {
          "internalType": "contract IERC20",
          "name": "_tokenToBuy",
          "type": "address"
        },
        {
          "internalType": "uint256",
          "name": "_amountToBuy",
          "type": "uint256"
        }
      ],
      "name": "createOrder",
      "outputs": [
        {
          "internalType": "uint256",
          "name": "",
          "type": "uint256"
        }
      ],
      "stateMutability": "payable",
      "type": "function"
    },
    {
      "inputs": [
        {
          "internalType": "uint256",
          "name": "_orderId",
          "type": "uint256"
        }
      ],
      "name": "fillOrder",
      "outputs": [],
      "stateMutability": "payable",
      "type": "function"
    },
    {
      "inputs": [
        {
          "internalType": "uint256",
          "name": "_orderId",
          "type": "uint256"
        }
      ],
      "name": "getOrder",
      "outputs": [
        {
          "components": [
            {
              "internalType": "address",
              "name": "maker",
              "type": "address"
            },
            {
              "internalType": "contract IERC20",
              "name": "tokenToSell",
              "type": "address"
            },
            {
              "internalType": "uint256",
              "name": "amountToSell",
              "type": "uint256"
            },
            {
              "internalType": "contract IERC20",
              "name": "tokenToBuy",
              "type": "address"
            },
            {
              "internalType": "uint256",
              "name": "amountToBuy",
              "type": "uint256"
            },
            {
              "internalType": "bool",
              "name": "isActive",
              "type": "bool"
            },
            {
              "internalType": "uint256",
              "name": "timestamp",
              "type": "uint256"
            }
          ],
          "internalType": "struct OTCTrade.Order",
          "name": "",
          "type": "tuple"
        }
      ],
      "stateMutability": "view",
      "type": "function"
    },
    {
      "inputs": [],
      "name": "getOrdersCount",
      "outputs": [
        {
          "internalType": "uint256",
          "name": "",
          "type": "uint256"
        }
      ],
      "stateMutability": "view",
      "type": "function"
    },
    {
      "inputs": [
        {
          "internalType": "uint256",
          "name": "",
          "type": "uint256"
        }
      ],
      "name": "orders",
      "outputs": [
        {
          "internalType": "address",
          "name": "maker",
          "type": "address"
        },
        {
          "internalType": "contract IERC20",
          "name": "tokenToSell",
          "type": "address"
        },
        {
          "internalType": "uint256",
          "name": "amountToSell",
          "type": "uint256"
        },
        {
          "internalType": "contract IERC20",
          "name": "tokenToBuy",
          "type": "address"
        },
        {
          "internalType": "uint256",
          "name": "amountToBuy",
          "type": "uint256"
        },
        {
          "internalType": "bool",
          "name": "isActive",
          "type": "bool"
        },
        {
          "internalType": "uint256",
          "name": "timestamp",
          "type": "uint256"
        }
      ],
      "stateMutability": "view",
      "type": "function"
    },
    {
      "inputs": [],
      "name": "owner",
      "outputs": [
        {
          "internalType": "address",
          "name": "",
          "type": "address"
        }
      ],
      "stateMutability": "view",
      "type": "function"
    },
    {
      "inputs": [],
      "name": "renounceOwnership",
      "outputs": [],
      "stateMutability": "nonpayable",
      "type": "function"
    },
    {
      "inputs": [
        {
          "internalType": "uint256",
          "name": "_newFeePercent",
          "type": "uint256"
        }
      ],
      "name": "setTradingFee",
      "outputs": [],
      "stateMutability": "nonpayable",
      "type": "function"
    },
    {
      "inputs": [],
      "name": "tradingFeePercent",
      "outputs": [
        {
          "internalType": "uint256",
          "name": "",
          "type": "uint256"
        }
      ],
      "stateMutability": "view",
      "type": "function"
    },
    {
      "inputs": [
        {
          "internalType": "address",
          "name": "newOwner",
          "type": "address"
        }
      ],
      "name": "transferOwnership",
      "outputs": [],
      "stateMutability": "nonpayable",
      "type": "function"
    },
    {
      "inputs": [
        {
          "internalType": "address",
          "name": "_token",
          "type": "address"
        },
        {
          "internalType": "bool",
          "name": "_status",
          "type": "bool"
        }
      ],
      "name": "whitelistToken",
      "outputs": [],
      "stateMutability": "nonpayable",
      "type": "function"
    },
    {
      "inputs": [
        {
          "internalType": "address",
          "name": "",
          "type": "address"
        }
      ],
      "name": "whitelistedTokens",
      "outputs": [
        {
          "internalType": "bool",
          "name": "",
          "type": "bool"
        }
      ],
      "stateMutability": "view",
      "type": "function"
    },
    {
      "inputs": [
        {
          "internalType": "contract IERC20",
          "name": "_token",
          "type": "address"
        }
      ],
      "name": "withdrawExtra",
      "outputs": [],
      "stateMutability": "nonpayable",
      "type": "function"
    },
    {
      "stateMutability": "payable",
      "type": "receive"
    }
  ],
  "bytecode": "0x608060405234801561001057600080fd5b506040516110d73803806110d783398101604081905261002f916100de565b338061005557604051631e4fbdf760e01b81526000600482015260240160405180910390fd5b61005e8161008e565b50600180556103e88111156100865760405163cd4e616760e01b815260040160405180910390fd5b6005556100f7565b600080546001600160a01b038381166001600160a01b0319831681178455604051919092169283917f8be0079c531659141344cd1fd0a4f28419497f9722a3daafe3b4186f6b6457e09190a35050565b6000602082840312156100f057600080fd5b5051919050565b610fd1806101066000396000f3fe6080604052600436106100e15760003560e01c8063a85c38ef1161007f578063d09ef24111610059578063d09ef241146102af578063daf9c210146103d9578063f2fde38b14610419578063fc05ca311461043957600080fd5b8063a85c38ef146101c8578063b0d54bcf1461027a578063b5b3b0511461029a57600080fd5b8063514fcac7116100bb578063514fcac71461015857806367b830ad14610178578063715018a61461018b5780638da5cb5b146101a057600080fd5b80630ffb1d8b146100ed5780632a3240271461010f5780634310a1991461013857600080fd5b366100e857005b600080fd5b3480156100f957600080fd5b5061010d610108366004610e3e565b61044c565b005b34801561011b57600080fd5b5061012560055481565b6040519081526020015b60405180910390f35b34801561014457600080fd5b5061010d610153366004610e7c565b6104b3565b34801561016457600080fd5b5061010d610173366004610ea0565b6105dc565b61010d610186366004610ea0565b6106d7565b34801561019757600080fd5b5061010d610899565b3480156101ac57600080fd5b506000546040516001600160a01b03909116815260200161012f565b3480156101d457600080fd5b506102356101e3366004610ea0565b600360208190526000918252604090912080546001820154600283015493830154600484015460058501546006909501546001600160a01b039485169693851695939490921692909160ff9091169087565b604080516001600160a01b0398891681529688166020880152860194909452949091166060840152608083015291151560a082015260c081019190915260e00161012f565b34801561028657600080fd5b5061010d610295366004610ea0565b6108ad565b3480156102a657600080fd5b50600254610125565b3480156102bb57600080fd5b506103766102ca366004610ea0565b6040805160e081018252600080825260208201819052918101829052606081018290526080810182905260a0810182905260c081019190915250600090815260036020818152604092839020835160e08101855281546001600160a01b03908116825260018301548116938201939093526002820154948101949094529182015416606083015260048101546080830152600581015460ff16151560a08301526006015460c082015290565b60405161012f919081516001600160a01b03908116825260208084015182169083015260408084015190830152606080840151909116908201526080808301519082015260a08281015115159082015260c0918201519181019190915260e00190565b3480156103e557600080fd5b506104096103f4366004610e7c565b60046020526000908152604090205460ff1681565b604051901515815260200161012f565b34801561042557600080fd5b5061010d610434366004610e7c565b610913565b610125610447366004610eb9565b610953565b610454610bb5565b6001600160a01b038216600081815260046020908152604091829020805460ff191685151590811790915591519182527fef81a9943b96c8df4ef243401c9bf5159146166211356898b52d382086168d92910160405180910390a25050565b6104bb610be2565b60006001600160a01b0382166104d257504761053d565b6040516370a0823160e01b81523060048201526001600160a01b038316906370a0823190602401602060405180830381865afa158015610516573d6000803e3d6000fd5b505050506040513d601f19601f8201168201806040525081019061053a9190610f01565b90505b8060000361055e57604051630b75736f60e31b815260040160405180910390fd5b6001600160a01b03821661057b576105763382610c0c565b61058f565b61058f6001600160a01b0383163383610ca2565b6040518181526001600160a01b0383169033907f87ab13ab31cc1c1a74e92248cd48cb5564730afe33fe25e314abe758d540e4f89060200160405180910390a3506105d960018055565b50565b6105e4610be2565b6000818152600360205260409020600581015460ff1661061757604051631d4ecc5b60e01b815260040160405180910390fd5b80546001600160a01b03163314610641576040516380f806d960e01b815260040160405180910390fd5b60058101805460ff1916905560018101546001600160a01b031661067e5780546002820154610679916001600160a01b031690610c0c565b6106a2565b8054600282015460018301546106a2926001600160a01b0391821692911690610ca2565b60405182907f61b9399f2f0f32ca39ce8d7be32caed5ec22fe07a6daba3a467ed479ec60658290600090a2506105d960018055565b6106df610be2565b6000818152600360205260409020600581015460ff1661071257604051631d4ecc5b60e01b815260040160405180910390fd5b600061271060055483600401546107299190610f30565b6107339190610f4d565b905060008183600401546107479190610f6f565b60038401549091506001600160a01b03166107bc5782600401543410156107815760405163070f6eed60e11b815260040160405180910390fd5b8254610796906001600160a01b031682610c0c565b81156107b7576107b76107b16000546001600160a01b031690565b83610c0c565b61080e565b825460038401546107dc916001600160a01b039182169133911684610d06565b811561080e5761080e336107f86000546001600160a01b031690565b60038601546001600160a01b0316919085610d06565b60018301546001600160a01b03166108335761082e338460020154610c0c565b610854565b60028301546001840154610854916001600160a01b03909116903390610ca2565b60058301805460ff19169055604051339085907f74ebbab24ee8774729982ac100f931306b160f431f7f1483cc380186d56754bc90600090a35050506105d960018055565b6108a1610bb5565b6108ab6000610d3f565b565b6108b5610bb5565b6103e88111156108d85760405163cd4e616760e01b815260040160405180910390fd5b60058190556040518181527fa3dfe13986da4bcfdc32f544ebe130cb8ec20a2afc45e7c3994975076a08e5789060200160405180910390a150565b61091b610bb5565b6001600160a01b03811661094a57604051631e4fbdf760e01b8152600060048201526024015b60405180910390fd5b6105d981610d3f565b600061095d610be2565b826001600160a01b0316856001600160a01b03160361098f576040516349af13db60e01b815260040160405180910390fd5b83158061099a575081155b156109b85760405163162908e360e11b815260040160405180910390fd5b6001600160a01b03851660009081526004602052604090205460ff1615806109f957506001600160a01b03831660009081526004602052604090205460ff16155b15610a17576040516307c241ad60e51b815260040160405180910390fd5b6001600160a01b038516610a4a57833414610a455760405163070f6eed60e11b815260040160405180910390fd5b610a5f565b610a5f6001600160a01b038616333087610d06565b6002805460009182610a7083610f82565b909155506040805160e081018252338082526001600160a01b038a811660208085019182528486018c81528b841660608701908152608087018c8152600160a089018181524260c08b0190815260008d81526003978890528c90209a518b54908a166001600160a01b0319918216178c559751928b018054938a1693891693909317909255935160028a01559151938801805494909616939094169290921790935590516004850155905160058401805491151560ff199092169190911790555160069092019190915590519192509082907f87fe93d79d983fe0c58212e2b0ffef6a47b3d30067aae73d04d7136301ac32d290610b9a908a908a908a908a906001600160a01b039485168152602081019390935292166040820152606081019190915260800190565b60405180910390a39050610bad60018055565b949350505050565b6000546001600160a01b031633146108ab5760405163118cdaa760e01b8152336004820152602401610941565b600260015403610c0557604051633ee5aeb560e01b815260040160405180910390fd5b6002600155565b80471015610c365760405163cf47918160e01b815247600482015260248101829052604401610941565b600080836001600160a01b03168360405160006040518083038185875af1925050503d8060008114610c84576040519150601f19603f3d011682016040523d82523d6000602084013e610c89565b606091505b509150915081610c9c57610c9c81610d8f565b50505050565b6040516001600160a01b03838116602483015260448201839052610d0191859182169063a9059cbb906064015b604051602081830303815290604052915060e01b6020820180516001600160e01b038381831617835250505050610db8565b505050565b6040516001600160a01b038481166024830152838116604483015260648201839052610c9c9186918216906323b872dd90608401610ccf565b600080546001600160a01b038381166001600160a01b0319831681178455604051919092169283917f8be0079c531659141344cd1fd0a4f28419497f9722a3daafe3b4186f6b6457e09190a35050565b805115610d9f5780518082602001fd5b60405163d6bda27560e01b815260040160405180910390fd5b600080602060008451602086016000885af180610ddb576040513d6000823e3d81fd5b50506000513d91508115610df3578060011415610e00565b6001600160a01b0384163b155b15610c9c57604051635274afe760e01b81526001600160a01b0385166004820152602401610941565b6001600160a01b03811681146105d957600080fd5b60008060408385031215610e5157600080fd5b8235610e5c81610e29565b915060208301358015158114610e7157600080fd5b809150509250929050565b600060208284031215610e8e57600080fd5b8135610e9981610e29565b9392505050565b600060208284031215610eb257600080fd5b5035919050565b60008060008060808587031215610ecf57600080fd5b8435610eda81610e29565b9350602085013592506040850135610ef181610e29565b9396929550929360600135925050565b600060208284031215610f1357600080fd5b5051919050565b634e487b7160e01b600052601160045260246000fd5b8082028115828204841417610f4757610f47610f1a565b92915050565b600082610f6a57634e487b7160e01b600052601260045260246000fd5b500490565b81810381811115610f4757610f47610f1a565b600060018201610f9457610f94610f1a565b506001019056fea26469706673582212201e085ce550fd04a0ffd03b3590303f1b0e8c5f471108ded311d9b3232938dc2064736f6c63430008140033",
  "linkReferences": {},
  "deployedLinkReferences": {}
}